{
  "_format": "hh-sol-artifact-1",
  "contractName": "L2Contract",
  "sourceName": "contracts/L2Contract.sol",
  "abi": [
    {
      "inputs": [
        {
          "internalType": "address",
          "name": "_l1Contract",
          "type": "address"
        },
        {
          "internalType": "address",
          "name": "_l2Messenger",
          "type": "address"
        }
      ],
      "stateMutability": "nonpayable",
      "type": "constructor"
    },
    {
      "inputs": [],
      "name": "greet",
      "outputs": [
        {
          "internalType": "string",
          "name": "",
          "type": "string"
        }
      ],
      "stateMutability": "view",
      "type": "function"
    },
    {
      "inputs": [
        {
          "internalType": "string",
          "name": "_greeting",
          "type": "string"
        },
        {
          "internalType": "address",
          "name": "from",
          "type": "address"
        }
      ],
      "name": "setGreeting",
      "outputs": [],
      "stateMutability": "nonpayable",
      "type": "function"
    }
  ],
  "bytecode": "0x608060405234801561001057600080fd5b5060405161070e38038061070e833981810160405281019061003291906100d0565b81600160006101000a81548173ffffffffffffffffffffffffffffffffffffffff021916908373ffffffffffffffffffffffffffffffffffffffff16021790555080600260006101000a81548173ffffffffffffffffffffffffffffffffffffffff021916908373ffffffffffffffffffffffffffffffffffffffff1602179055505050610155565b6000815190506100ca8161013e565b92915050565b600080604083850312156100e357600080fd5b60006100f1858286016100bb565b9250506020610102858286016100bb565b9150509250929050565b60006101178261011e565b9050919050565b600073ffffffffffffffffffffffffffffffffffffffff82169050919050565b6101478161010c565b811461015257600080fd5b50565b6105aa806101646000396000f3fe608060405234801561001057600080fd5b50600436106100365760003560e01c80638d86c2ad1461003b578063cfae321714610057575b600080fd5b610055600480360381019061005091906102f6565b610075565b005b61005f610144565b60405161006c9190610383565b60405180910390f35b600260009054906101000a900473ffffffffffffffffffffffffffffffffffffffff1673ffffffffffffffffffffffffffffffffffffffff163373ffffffffffffffffffffffffffffffffffffffff16146100cf57600080fd5b600160009054906101000a900473ffffffffffffffffffffffffffffffffffffffff1673ffffffffffffffffffffffffffffffffffffffff168173ffffffffffffffffffffffffffffffffffffffff161461012957600080fd5b816000908051906020019061013f9291906101d6565b505050565b6060600080546101539061048b565b80601f016020809104026020016040519081016040528092919081815260200182805461017f9061048b565b80156101cc5780601f106101a1576101008083540402835291602001916101cc565b820191906000526020600020905b8154815290600101906020018083116101af57829003601f168201915b5050505050905090565b8280546101e29061048b565b90600052602060002090601f016020900481019282610204576000855561024b565b82601f1061021d57805160ff191683800117855561024b565b8280016001018555821561024b579182015b8281111561024a57825182559160200191906001019061022f565b5b509050610258919061025c565b5090565b5b8082111561027557600081600090555060010161025d565b5090565b600061028c610287846103ca565b6103a5565b9050828152602081018484840111156102a457600080fd5b6102af848285610449565b509392505050565b6000813590506102c68161055d565b92915050565b600082601f8301126102dd57600080fd5b81356102ed848260208601610279565b91505092915050565b6000806040838503121561030957600080fd5b600083013567ffffffffffffffff81111561032357600080fd5b61032f858286016102cc565b9250506020610340858286016102b7565b9150509250929050565b6000610355826103fb565b61035f8185610406565b935061036f818560208601610458565b6103788161054c565b840191505092915050565b6000602082019050818103600083015261039d818461034a565b905092915050565b60006103af6103c0565b90506103bb82826104bd565b919050565b6000604051905090565b600067ffffffffffffffff8211156103e5576103e461051d565b5b6103ee8261054c565b9050602081019050919050565b600081519050919050565b600082825260208201905092915050565b600061042282610429565b9050919050565b600073ffffffffffffffffffffffffffffffffffffffff82169050919050565b82818337600083830152505050565b60005b8381101561047657808201518184015260208101905061045b565b83811115610485576000848401525b50505050565b600060028204905060018216806104a357607f821691505b602082108114156104b7576104b66104ee565b5b50919050565b6104c68261054c565b810181811067ffffffffffffffff821117156104e5576104e461051d565b5b80604052505050565b7f4e487b7100000000000000000000000000000000000000000000000000000000600052602260045260246000fd5b7f4e487b7100000000000000000000000000000000000000000000000000000000600052604160045260246000fd5b6000601f19601f8301169050919050565b61056681610417565b811461057157600080fd5b5056fea2646970667358221220712c3f0265f024689f0714f804b19a7355af62ed4d24c92b0317a81217437b9064736f6c63430008040033",
  "linkReferences": {},
  "deployedLinkReferences": {}
}