{
  "_format": "hh-sol-artifact-1",
  "contractName": "L1Contract",
  "sourceName": "contracts/L1Contract.sol",
  "abi": [
    {
      "inputs": [
        {
          "internalType": "address",
          "name": "_l1Messenger",
          "type": "address"
        }
      ],
      "stateMutability": "nonpayable",
      "type": "constructor"
    },
    {
      "inputs": [
        {
          "internalType": "address",
          "name": "_to",
          "type": "address"
        },
        {
          "internalType": "string",
          "name": "_greeting",
          "type": "string"
        }
      ],
      "name": "sendMessageToL2",
      "outputs": [],
      "stateMutability": "payable",
      "type": "function"
    }
  ],
  "bytecode": "0x608060405234801561001057600080fd5b506040516106383803806106388339818101604052810190610032919061008d565b806000806101000a81548173ffffffffffffffffffffffffffffffffffffffff021916908373ffffffffffffffffffffffffffffffffffffffff160217905550506100ff565b600081519050610087816100e8565b92915050565b60006020828403121561009f57600080fd5b60006100ad84828501610078565b91505092915050565b60006100c1826100c8565b9050919050565b600073ffffffffffffffffffffffffffffffffffffffff82169050919050565b6100f1816100b6565b81146100fc57600080fd5b50565b61052a8061010e6000396000f3fe60806040526004361061001e5760003560e01c80639d9dc4e014610023575b600080fd5b61003d600480360381019061003891906101df565b61003f565b005b60003090506000620186a090506000638d86c2ad60e01b848460405160240161006992919061031e565b604051602081830303815290604052907bffffffffffffffffffffffffffffffffffffffffffffffffffffffff19166020820180517bffffffffffffffffffffffffffffffffffffffffffffffffffffffff8381831617835250505050905060008054906101000a900473ffffffffffffffffffffffffffffffffffffffff1673ffffffffffffffffffffffffffffffffffffffff1663b2267a7b3487600085876040518663ffffffff1660e01b815260040161012994939291906102d2565b6000604051808303818588803b15801561014257600080fd5b505af1158015610156573d6000803e3d6000fd5b50505050505050505050565b600061017561017084610373565b61034e565b90508281526020810184848401111561018d57600080fd5b61019884828561042a565b509392505050565b6000813590506101af816104dd565b92915050565b600082601f8301126101c657600080fd5b81356101d6848260208601610162565b91505092915050565b600080604083850312156101f257600080fd5b6000610200858286016101a0565b925050602083013567ffffffffffffffff81111561021d57600080fd5b610229858286016101b5565b9150509250929050565b61023c816103dc565b82525050565b600061024d826103a4565b61025781856103ba565b9350610267818560208601610439565b610270816104cc565b840191505092915050565b61028481610418565b82525050565b6000610295826103af565b61029f81856103cb565b93506102af818560208601610439565b6102b8816104cc565b840191505092915050565b6102cc8161040e565b82525050565b60006080820190506102e76000830187610233565b6102f4602083018661027b565b81810360408301526103068185610242565b905061031560608301846102c3565b95945050505050565b60006040820190508181036000830152610338818561028a565b90506103476020830184610233565b9392505050565b6000610358610369565b9050610364828261046c565b919050565b6000604051905090565b600067ffffffffffffffff82111561038e5761038d61049d565b5b610397826104cc565b9050602081019050919050565b600081519050919050565b600081519050919050565b600082825260208201905092915050565b600082825260208201905092915050565b60006103e7826103ee565b9050919050565b600073ffffffffffffffffffffffffffffffffffffffff82169050919050565b6000819050919050565b60006104238261040e565b9050919050565b82818337600083830152505050565b60005b8381101561045757808201518184015260208101905061043c565b83811115610466576000848401525b50505050565b610475826104cc565b810181811067ffffffffffffffff821117156104945761049361049d565b5b80604052505050565b7f4e487b7100000000000000000000000000000000000000000000000000000000600052604160045260246000fd5b6000601f19601f8301169050919050565b6104e6816103dc565b81146104f157600080fd5b5056fea2646970667358221220e6f918e9fde6bb79f553726d60fbd2e602dabe7e0d16b68e89407c1d08ecc25964736f6c63430008040033",
  "linkReferences": {},
  "deployedLinkReferences": {}
}